:020000040040BA
:100000000000442039044000C1044000C104400005
:10001000C1044000C1044000C104400000000000D1
:10002000000000000000000000000000C1044000CB
:10003000C104400000000000C1044000C1044000B1
:10004000C1044000C1044000C1044000C10440009C
:10005000C1044000C1044000C1044000410140000F
:10006000C104400000000000C1044000C104400081
:10007000C1044000C1044000C1044000C10440006C
:10008000C1044000C1044000C1044000C10440005C
:10009000C1044000C1044000C1044000C10440004C
:1000A000C1044000C1044000C1044000C10440003C
:1000B000C1044000C1044000C1044000C10440002C
:1000C000C1044000C1044000290C4000C1044000AC
:1000D00000000000C104400000000000C104400016
:1000E000C1044000C1044000C1044000C1044000FC
:1000F000C1044000C1044000C1044000C1044000EC
:10010000C1044000C1044000C1044000C1044000DB
:10011000C1044000000000000000000000000000DA
:10012000C1044000C1044000C1044000C1044000BB
:10013000C104400000000000C1044000C1044000B0
:1001400080B400AF0D4B1B680D4A9B1A0D4A1288F4
:10015000934204D10C4AD36843F00203D360074BA7
:100160001B685A1C05490A60074A1978D36961F36C
:100170000703D36100BFBD4680BC704754014020D7
:10018000500040205801402000080E4080B400AFCD
:10019000104B1B690F4A43F0800313610E4A136F23
:1001A0006FF38A2313670C4A536F43F480635367DA
:1001B000094A536843F480635360084B0A221A6269
:1001C000064A136843F04003136000BFBD4680BC7D
:1001D000704700BF00060E40000E0E4000080E40A3
:1001E00080B485B000AF78600B46FB700023FB73D2
:1001F0000AE0FB7B7A681A44FB7B24490B441278A3
:100200001A70FB7B0133FB73FA7BFB789A42F0D3C5
:10021000FB7B01331D4A13440D221A70FB7B023312
:100220001A4A13440A221A70FB789BB202339AB21C
:10023000174B1A80174B154A1A60164B1B685A1C2D
:1002400014490A60144A1978D36961F30703D3612A
:1002500000BF114B5B69C3F34003DBB2002BF8D046
:100260000C4B1B685A1C0B490A600B4A1978D3695E
:1002700061F30703D361084A936843F00203936074
:1002800000BF1437BD4680BC704700BF50004020FF
:10029000580140205401402000080E4080B485B031
:1002A00000AF78607B6803F00703FB600B4BDB68F3
:1002B000BB60BA684FF6FF031340BB60FB681A02CD
:1002C000BB681A43064B1343BB60044ABB68D36048
:1002D00000BF1437BD4680BC704700BF00ED00E092
:1002E0000000FA0580B400AF344A536843F4004379
:1002F0005360334B334A1A60334A334B1B6A23F043
:10030000020313623049304B1A6A304B13430B62BD
:1003100000BF2D4B9B6EC3F30003DBB2002BF8D064
:100320002949294B1A6A2A4B13430B6200BF264BFB
:100330009B6EC3F30003DBB2002BF8D0224B5B6A49
:10034000C3F30043DBB2002BF1D01F4B214A9A626A
:1003500000BF1D4B9B6EC3F34003DBB2002BF8D0F4
:10036000194A194B1B6B43F48073136300BF164B80
:100370009B6EC3F3C003DBB2002BF8D0124A136BA1
:10038000022161F30103136300BF0F4B9B6EC3F3A4
:10039000C003DBB2002BF8D00B4A0B4B1B6943F4B4
:1003A000473313610C4A0C4BD3F8143143F010035C
:1003B000C2F8143100BFBD4680BC704750180E40D3
:1003C000000C0E400006000400060E400114370029
:1003D00000003701013F18200080084080B500AFC1
:1003E0000420034B9847BFF35F8F62B600BF80BD08
:1003F0009D02400080B582B000AF0A4B98470A4B7F
:1004000098470A4B98470A4A3B1D126811461980C3
:100410000233120C1A703B1D03211846054B9847F6
:10042000FEE700BFE5024000DD0340008D01400013
:10043000840C4000E101400080B582B000AF184B51
:100440007B60184B3B6007E07A68131D7B603B685C
:10045000191D396012681A603B68134A9342F3D33E
:10046000124B3B6004E03B681A1D3A6000221A60A0
:100470003B680F4A9342F6D30E4BD3F888300D4AAF
:1004800043F47003C2F88830BFF34F8F00BFBFF34F
:100490006F8F00BF074B084A9A60084B9847FEE7EA
:1004A000640D4000000040205000402050004020DB
:1004B000E801402000ED00E000004000F5034000AE
:1004C00080B400AFFEE780B400AF00BFBD4680BC83
:1004D0007047FFFF80B485B000AF78600B46FB70BB
:1004E00007F1080300221A605A60FA781749134688
:1004F0009B0013449B000B4410331B88002B02D03D
:10050000FB780A2B07D97B681A4607F1080303CB4F
:100510001060516014E0FA780C4913469B001344B4
:100520009B000B4408331A6807F1080310685168F0
:1005300003C37B681A4607F1080303CB10605160C0
:1005400078681437BD4680BC704700BF000040206B
:1005500080B487B000AF03463960FB711346BB809F
:10056000FA794A4913469B0013449B000B44043319
:100570001B683B61FA79454913469B0013449B0075
:100580000B440C331B88FB730023FB82BB88002BBE
:1005900072D13F49FB7903F1580251F8223043F000
:1005A000010341F822303A49FB7903F1880251F8FE
:1005B000223043F4804341F8223000BF344AFB79B3
:1005C0004C3352F82330C3F30003DBB2002BF5D0D9
:1005D0002F4AFB79703352F82330C3F38033DBB2F8
:1005E000002B4ED1FB79002BE8D14AE00023BB82DF
:1005F0000DE0FB8A3A681A44FB8A39690B44127889
:100600001A70FB8A0133FB82BB8A0133BB82FB7BFE
:100610009BB2BA8A9A4203D2FA8ABB889A42E8D33A
:100620001B49FB7903F1580251F8223043F00103D2
:1006300041F822301649FB7903F1880251F8223043
:1006400043F4804341F8223000BF114AFB794C3318
:1006500052F82330C3F30003DBB2002BF5D00C4A71
:10066000FB79703352F82330C3F38033DBB2002BB5
:1006700002D1FB79002BE8D1FA8ABB889A42B5D324
:1006800000E000BF1C37BD4680BC70470000402022
:100690000080034080B582B000AF78607B68DB7873
:1006A000032B24D0032B61DC012B02D0022B0FD0B3
:1006B0005CE07B68DA88324B1B789BB2934228BFA0
:1006C00013469BB21A462F4900202F4B984753E000
:1006D0007B68DA882D4B1B789BB2934228BF134668
:1006E0009BB21A462A490020274B984744E07B6872
:1006F0009B78022B24D0022B31DC002B02D0012B63
:100700000FD02CE07B68DA88224B1B789BB2934297
:1007100028BF13469BB21A461F4900201A4B984720
:1007200023E07B68DA881D4B1B789BB2934228BF7D
:1007300013469BB21A461A490020134B984714E0FF
:100740007B68DA88174B1B789BB2934228BF13460D
:100750009BB21A46144900200B4B984705E0002233
:1007600000210020084B984706E005E00022002108
:100770000020054B984700BF00BF0837BD4680BD2D
:10078000620D4000AC0C400051054000630D40007C
:10079000C00C4000610D4000A80C40005F0D4000FF
:1007A000880C4000600D4000A00C400080B487B071
:1007B00000AF0346FB71214AFB794C3352F82330DA
:1007C000C3F30A539BB2BB82FA791D4913469B00BF
:1007D00013449B000B4408331B683B61FA791849AA
:1007E00013469B0013449B000B4404331B68FB60BF
:1007F0000023FB820AE0FB8AFA681A44FB8A396903
:100800000B4412781A70FB8A0133FB82FA8ABB8A86
:100810009A42F0D3FA79BB8A03F00A0398B20849E6
:1008200013469B0013449B000B44103302461A806E
:1008300000BF1C37BD4680BC704700BF008003402E
:100840000000402080B582B000AF78607B685B78A4
:100850000C2B2FD801A252F823F000BF91084000C2
:100860009D084000B5084000A9084000B5084000B8
:10087000B5084000B5084000B5084000B508400084
:10088000B5084000B5084000B5084000B508400074
:100890000022002100200A4B98470CE00022002192
:1008A0000020074B984706E0002200210020044B5F
:1008B000984700E000BF00BF0837BD4680BD00BFBD
:1008C0005105400080B582B000AF78607B685B78EE
:1008D0000B2B38D801A252F823F000BF0D094000BD
:1008E0001909400047094000250940004709400018
:1008F00047094000470940004709400047094000B8
:1009000047094000310940003D0940000022002114
:1009100000200F4B984717E00022002100200C4BCD
:10092000984711E0002200210020094B98470BE076
:10093000002200210020064B984705E000220021FC
:100940000020034B984700BF00BF0837BD4680BD5D
:100950005105400080B582B000AF78607B685B785D
:10096000092B4AD801A252F823F000BFFB0940002E
:1009700095094000FB094000FB094000FB094000CD
:10098000A1094000D5094000FB094000DD094000F5
:10099000E90940000022002100201A4B98472DE071
:1009A0007B685B88184A03F07F03D9B2136861F350
:1009B00006031360144A13686FF3C7131360002211
:1009C000002100200F4B98470F4A136843F0800323
:1009D000136013E078680D4B98470FE001220C4933
:1009E0000020084B984709E0094B01221A700022A9
:1009F00000210020034B984700E000BF00BF0837EC
:100A0000BD4680BD51054000008003409506400072
:100A1000E401402080B582B000AF78607B681B782D
:100A200003F00203002B03D078680A4B98470CE0D0
:100A30007B681B7803F00103002B03D07868064B1A
:100A4000984702E07868054B984700BF0837BD46D5
:100A500080BD00BF45084000C50840005509400062
:100A600080B582B000AF0020154B98473B4600216F
:100A70001846144B9847144AD2F8603143F00403E7
:100A8000C2F86031104AD2F8603143F00203C2F874
:100A900060313B7803F02003002B02D00B4B9847CA
:100AA00006E03B7803F04003002B01D0074B98474A
:100AB0003B461846064B984700BF0837BD4680BDE9
:100AC000AD074000D504400000800340C70440004B
:100AD000150A400080B400AF304AD36943F00203E6
:100AE000D3612E4BD3F804312C4A43F4C853C2F8D7
:100AF00004312A4BD3F80431284A43F00203C2F8E8
:100B00000431264BD3F83431C3F38043DBB2002BDE
:100B100001D101233EE0214AD36943F00403D361AC
:100B20001E4BD3F808211D4940F658031343C1F862
:100B300008311A4BD3F80831184A43F00203C2F8BF
:100B40000831164BD3F83831C3F38043DBB2002BA6
:100B500001D101231EE0114AD36943F00803D36198
:100B60000E4BD3F80C310D4A43F41063C2F80C312C
:100B70000A4BD3F80C31094A43F00203C2F80C3196
:100B8000064BD3F83C31C3F38043DBB2002B01D1D9
:100B90000123FFE71846BD4680BC70470080034034
:100BA00080B500AF1E4BD3F8F0311D4A43F0060369
:100BB000C2F8F0311A4A936943F480539361184B99
:100BC000D3F8F431164A43F00603C2F8F431144A5C
:100BD000936943F400539361114BD3F8F831104AF1
:100BE00043F00603C2F8F8310D4A936943F4804399
:100BF00093610B4BD3F8FC31094A43F00603C2F86A
:100C0000FC31074A936943F400439361054B9847CD
:100C1000034B9B68024A43F01803936000BF80BDFA
:100C200000800340D50A400080B582B000AF114B70
:100C30005B687B607B6803F01003002B01D00E4BD8
:100C400098477B6803F48053002B01D00B4B9847E7
:100C50007B6803F40053002B01D0094B98477B6855
:100C600003F48043002B01D0054B984700BF0837A1
:100C7000BD4680BD00800340A10B4000610A4000DA
:100C8000C704400061626300180342007200610003
:100C90006E0064006F006E002000480061006F006D
:100CA0000803440041004300040309041201000248
:100CB000EF02014001000100010001020001FFFFFD
:100CC00009029F000201008032080B00020100208F
:100CD0000009040000010101200009240100020AAA
:100CE000470000112402010101000400000000007F
:100CF000004000000C240302010300030400000074
:100D0000122406030203000000000000000000009F
:100D1000000008240A0403070000070581030600F9
:100D2000040904010000010220000904010102017C
:100D3000022000102401010501010000000203004F
:100D400000000006240201021007050205680001E8
:100D500008250100000000000705831104000418A5
:040D60000804129FD2
:100D640000000000000010A05C0140204000400092
:100D74000000000001000000008010A09C01402041
:100D8400400040000000000002000000000011A02C
:100D9400000000000001000000000000030000004B
:100DA400008011A0DC0140200800080000000000C1
:04000005004004397A
:00000001FF
